{
  "_format": "hh-sol-artifact-1",
  "contractName": "NFT",
  "sourceName": "contracts/NFT.sol",
  "abi": [
    {
      "inputs": [],
      "stateMutability": "nonpayable",
      "type": "constructor"
    },
    {
      "anonymous": false,
      "inputs": [
        {
          "indexed": true,
          "internalType": "address",
          "name": "owner",
          "type": "address"
        },
        {
          "indexed": true,
          "internalType": "address",
          "name": "approved",
          "type": "address"
        },
        {
          "indexed": true,
          "internalType": "uint256",
          "name": "tokenId",
          "type": "uint256"
        }
      ],
      "name": "Approval",
      "type": "event"
    },
    {
      "anonymous": false,
      "inputs": [
        {
          "indexed": true,
          "internalType": "address",
          "name": "owner",
          "type": "address"
        },
        {
          "indexed": true,
          "internalType": "address",
          "name": "operator",
          "type": "address"
        },
        {
          "indexed": false,
          "internalType": "bool",
          "name": "approved",
          "type": "bool"
        }
      ],
      "name": "ApprovalForAll",
      "type": "event"
    },
    {
      "anonymous": false,
      "inputs": [
        {
          "indexed": true,
          "internalType": "address",
          "name": "from",
          "type": "address"
        },
        {
          "indexed": true,
          "internalType": "address",
          "name": "to",
          "type": "address"
        },
        {
          "indexed": true,
          "internalType": "uint256",
          "name": "tokenId",
          "type": "uint256"
        }
      ],
      "name": "Transfer",
      "type": "event"
    },
    {
      "inputs": [
        {
          "internalType": "address",
          "name": "to",
          "type": "address"
        },
        {
          "internalType": "uint256",
          "name": "tokenId",
          "type": "uint256"
        }
      ],
      "name": "approve",
      "outputs": [],
      "stateMutability": "nonpayable",
      "type": "function"
    },
    {
      "inputs": [
        {
          "internalType": "address",
          "name": "owner",
          "type": "address"
        }
      ],
      "name": "balanceOf",
      "outputs": [
        {
          "internalType": "uint256",
          "name": "",
          "type": "uint256"
        }
      ],
      "stateMutability": "view",
      "type": "function"
    },
    {
      "inputs": [
        {
          "internalType": "uint256",
          "name": "tokenId",
          "type": "uint256"
        }
      ],
      "name": "getApproved",
      "outputs": [
        {
          "internalType": "address",
          "name": "",
          "type": "address"
        }
      ],
      "stateMutability": "view",
      "type": "function"
    },
    {
      "inputs": [
        {
          "internalType": "uint256",
          "name": "tokenId",
          "type": "uint256"
        }
      ],
      "name": "getTokenURI",
      "outputs": [
        {
          "internalType": "string",
          "name": "",
          "type": "string"
        }
      ],
      "stateMutability": "pure",
      "type": "function"
    },
    {
      "inputs": [
        {
          "internalType": "address",
          "name": "owner",
          "type": "address"
        },
        {
          "internalType": "address",
          "name": "operator",
          "type": "address"
        }
      ],
      "name": "isApprovedForAll",
      "outputs": [
        {
          "internalType": "bool",
          "name": "",
          "type": "bool"
        }
      ],
      "stateMutability": "view",
      "type": "function"
    },
    {
      "inputs": [],
      "name": "mint",
      "outputs": [
        {
          "internalType": "uint256",
          "name": "",
          "type": "uint256"
        }
      ],
      "stateMutability": "nonpayable",
      "type": "function"
    },
    {
      "inputs": [],
      "name": "name",
      "outputs": [
        {
          "internalType": "string",
          "name": "",
          "type": "string"
        }
      ],
      "stateMutability": "view",
      "type": "function"
    },
    {
      "inputs": [
        {
          "internalType": "uint256",
          "name": "tokenId",
          "type": "uint256"
        }
      ],
      "name": "ownerOf",
      "outputs": [
        {
          "internalType": "address",
          "name": "",
          "type": "address"
        }
      ],
      "stateMutability": "view",
      "type": "function"
    },
    {
      "inputs": [
        {
          "internalType": "address",
          "name": "from",
          "type": "address"
        },
        {
          "internalType": "address",
          "name": "to",
          "type": "address"
        },
        {
          "internalType": "uint256",
          "name": "tokenId",
          "type": "uint256"
        }
      ],
      "name": "safeTransferFrom",
      "outputs": [],
      "stateMutability": "nonpayable",
      "type": "function"
    },
    {
      "inputs": [
        {
          "internalType": "address",
          "name": "from",
          "type": "address"
        },
        {
          "internalType": "address",
          "name": "to",
          "type": "address"
        },
        {
          "internalType": "uint256",
          "name": "tokenId",
          "type": "uint256"
        },
        {
          "internalType": "bytes",
          "name": "data",
          "type": "bytes"
        }
      ],
      "name": "safeTransferFrom",
      "outputs": [],
      "stateMutability": "nonpayable",
      "type": "function"
    },
    {
      "inputs": [
        {
          "internalType": "address",
          "name": "operator",
          "type": "address"
        },
        {
          "internalType": "bool",
          "name": "approved",
          "type": "bool"
        }
      ],
      "name": "setApprovalForAll",
      "outputs": [],
      "stateMutability": "nonpayable",
      "type": "function"
    },
    {
      "inputs": [
        {
          "internalType": "bytes4",
          "name": "interfaceId",
          "type": "bytes4"
        }
      ],
      "name": "supportsInterface",
      "outputs": [
        {
          "internalType": "bool",
          "name": "",
          "type": "bool"
        }
      ],
      "stateMutability": "view",
      "type": "function"
    },
    {
      "inputs": [],
      "name": "symbol",
      "outputs": [
        {
          "internalType": "string",
          "name": "",
          "type": "string"
        }
      ],
      "stateMutability": "view",
      "type": "function"
    },
    {
      "inputs": [
        {
          "internalType": "uint256",
          "name": "tokenId",
          "type": "uint256"
        }
      ],
      "name": "tokenURI",
      "outputs": [
        {
          "internalType": "string",
          "name": "",
          "type": "string"
        }
      ],
      "stateMutability": "view",
      "type": "function"
    },
    {
      "inputs": [
        {
          "internalType": "address",
          "name": "from",
          "type": "address"
        },
        {
          "internalType": "address",
          "name": "to",
          "type": "address"
        },
        {
          "internalType": "uint256",
          "name": "tokenId",
          "type": "uint256"
        }
      ],
      "name": "transferFrom",
      "outputs": [],
      "stateMutability": "nonpayable",
      "type": "function"
    }
  ],
  "bytecode": "0x60806040523480156200001157600080fd5b506040518060400160405280600381526020017f4e465400000000000000000000000000000000000000000000000000000000008152506040518060400160405280600381526020017f4e4654000000000000000000000000000000000000000000000000000000000081525081600090816200008f919062000324565b508060019081620000a1919062000324565b5050506200040b565b600081519050919050565b7f4e487b7100000000000000000000000000000000000000000000000000000000600052604160045260246000fd5b7f4e487b7100000000000000000000000000000000000000000000000000000000600052602260045260246000fd5b600060028204905060018216806200012c57607f821691505b602082108103620001425762000141620000e4565b5b50919050565b60008190508160005260206000209050919050565b60006020601f8301049050919050565b600082821b905092915050565b600060088302620001ac7fffffffffffffffffffffffffffffffffffffffffffffffffffffffffffffffff826200016d565b620001b886836200016d565b95508019841693508086168417925050509392505050565b6000819050919050565b6000819050919050565b600062000205620001ff620001f984620001d0565b620001da565b620001d0565b9050919050565b6000819050919050565b6200022183620001e4565b6200023962000230826200020c565b8484546200017a565b825550505050565b600090565b6200025062000241565b6200025d81848462000216565b505050565b5b8181101562000285576200027960008262000246565b60018101905062000263565b5050565b601f821115620002d4576200029e8162000148565b620002a9846200015d565b81016020851015620002b9578190505b620002d1620002c8856200015d565b83018262000262565b50505b505050565b600082821c905092915050565b6000620002f960001984600802620002d9565b1980831691505092915050565b6000620003148383620002e6565b9150826002028217905092915050565b6200032f82620000aa565b67ffffffffffffffff8111156200034b576200034a620000b5565b5b62000357825462000113565b6200036482828562000289565b600060209050601f8311600181146200039c576000841562000387578287015190505b62000393858262000306565b86555062000403565b601f198416620003ac8662000148565b60005b82811015620003d657848901518255600182019150602085019450602081019050620003af565b86831015620003f65784890151620003f2601f891682620002e6565b8355505b6001600288020188555050505b505050505050565b612bf5806200041b6000396000f3fe608060405234801561001057600080fd5b50600436106100f55760003560e01c806342842e0e11610097578063a22cb46511610066578063a22cb46514610298578063b88d4fde146102b4578063c87b56dd146102d0578063e985e9c514610300576100f5565b806342842e0e146101fe5780636352211e1461021a57806370a082311461024a57806395d89b411461027a576100f5565b8063095ea7b3116100d3578063095ea7b3146101785780631249c58b1461019457806323b872dd146101b25780633bb3a24d146101ce576100f5565b806301ffc9a7146100fa57806306fdde031461012a578063081812fc14610148575b600080fd5b610114600480360381019061010f9190611bc6565b610330565b6040516101219190611c0e565b60405180910390f35b610132610412565b60405161013f9190611cb9565b60405180910390f35b610162600480360381019061015d9190611d11565b6104a4565b60405161016f9190611d7f565b60405180910390f35b610192600480360381019061018d9190611dc6565b6104ea565b005b61019c610601565b6040516101a99190611e15565b60405180910390f35b6101cc60048036038101906101c79190611e30565b61062b565b005b6101e860048036038101906101e39190611d11565b61068b565b6040516101f59190611cb9565b60405180910390f35b61021860048036038101906102139190611e30565b6106e9565b005b610234600480360381019061022f9190611d11565b610709565b6040516102419190611d7f565b60405180910390f35b610264600480360381019061025f9190611e83565b61078f565b6040516102719190611e15565b60405180910390f35b610282610846565b60405161028f9190611cb9565b60405180910390f35b6102b260048036038101906102ad9190611edc565b6108d8565b005b6102ce60048036038101906102c99190612051565b6108ee565b005b6102ea60048036038101906102e59190611d11565b610950565b6040516102f79190611cb9565b60405180910390f35b61031a600480360381019061031591906120d4565b610a62565b6040516103279190611c0e565b60405180910390f35b60007f80ac58cd000000000000000000000000000000000000000000000000000000007bffffffffffffffffffffffffffffffffffffffffffffffffffffffff1916827bffffffffffffffffffffffffffffffffffffffffffffffffffffffff191614806103fb57507f5b5e139f000000000000000000000000000000000000000000000000000000007bffffffffffffffffffffffffffffffffffffffffffffffffffffffff1916827bffffffffffffffffffffffffffffffffffffffffffffffffffffffff1916145b8061040b575061040a82610af6565b5b9050919050565b60606000805461042190612143565b80601f016020809104026020016040519081016040528092919081815260200182805461044d90612143565b801561049a5780601f1061046f5761010080835404028352916020019161049a565b820191906000526020600020905b81548152906001019060200180831161047d57829003601f168201915b5050505050905090565b60006104af82610b60565b6004600083815260200190815260200160002060009054906101000a900473ffffffffffffffffffffffffffffffffffffffff169050919050565b60006104f582610709565b90508073ffffffffffffffffffffffffffffffffffffffff168373ffffffffffffffffffffffffffffffffffffffff1603610565576040517f08c379a000000000000000000000000000000000000000000000000000000000815260040161055c906121e6565b60405180910390fd5b8073ffffffffffffffffffffffffffffffffffffffff16610584610bab565b73ffffffffffffffffffffffffffffffffffffffff1614806105b357506105b2816105ad610bab565b610a62565b5b6105f2576040517f08c379a00000000000000000000000000000000000000000000000000000000081526004016105e990612278565b60405180910390fd5b6105fc8383610bb3565b505050565b60008061060e6007610c6c565b905061061a3382610c7a565b6106246007610e97565b8091505090565b61063c610636610bab565b82610ead565b61067b576040517f08c379a00000000000000000000000000000000000000000000000000000000081526004016106729061230a565b60405180910390fd5b610686838383610f42565b505050565b606060006106988361123b565b6040516020016106a89190612496565b60405160208183030381529060405290506106c281611309565b6040516020016106d29190612525565b604051602081830303815290604052915050919050565b610704838383604051806020016040528060008152506108ee565b505050565b6000806107158361146c565b9050600073ffffffffffffffffffffffffffffffffffffffff168173ffffffffffffffffffffffffffffffffffffffff1603610786576040517f08c379a000000000000000000000000000000000000000000000000000000000815260040161077d90612593565b60405180910390fd5b80915050919050565b60008073ffffffffffffffffffffffffffffffffffffffff168273ffffffffffffffffffffffffffffffffffffffff16036107ff576040517f08c379a00000000000000000000000000000000000000000000000000000000081526004016107f690612625565b60405180910390fd5b600360008373ffffffffffffffffffffffffffffffffffffffff1673ffffffffffffffffffffffffffffffffffffffff168152602001908152602001600020549050919050565b60606001805461085590612143565b80601f016020809104026020016040519081016040528092919081815260200182805461088190612143565b80156108ce5780601f106108a3576101008083540402835291602001916108ce565b820191906000526020600020905b8154815290600101906020018083116108b157829003601f168201915b5050505050905090565b6108ea6108e3610bab565b83836114a9565b5050565b6108ff6108f9610bab565b83610ead565b61093e576040517f08c379a00000000000000000000000000000000000000000000000000000000081526004016109359061230a565b60405180910390fd5b61094a84848484611615565b50505050565b606061095b82610b60565b600060066000848152602001908152602001600020805461097b90612143565b80601f01602080910402602001604051908101604052809291908181526020018280546109a790612143565b80156109f45780601f106109c9576101008083540402835291602001916109f4565b820191906000526020600020905b8154815290600101906020018083116109d757829003601f168201915b505050505090506000610a05611671565b90506000815103610a1a578192505050610a5d565b600082511115610a4f578082604051602001610a37929190612645565b60405160208183030381529060405292505050610a5d565b610a5884611688565b925050505b919050565b6000600560008473ffffffffffffffffffffffffffffffffffffffff1673ffffffffffffffffffffffffffffffffffffffff16815260200190815260200160002060008373ffffffffffffffffffffffffffffffffffffffff1673ffffffffffffffffffffffffffffffffffffffff16815260200190815260200160002060009054906101000a900460ff16905092915050565b60007f01ffc9a7000000000000000000000000000000000000000000000000000000007bffffffffffffffffffffffffffffffffffffffffffffffffffffffff1916827bffffffffffffffffffffffffffffffffffffffffffffffffffffffff1916149050919050565b610b69816116f0565b610ba8576040517f08c379a0000000000000000000000000000000000000000000000000000000008152600401610b9f90612593565b60405180910390fd5b50565b600033905090565b816004600083815260200190815260200160002060006101000a81548173ffffffffffffffffffffffffffffffffffffffff021916908373ffffffffffffffffffffffffffffffffffffffff160217905550808273ffffffffffffffffffffffffffffffffffffffff16610c2683610709565b73ffffffffffffffffffffffffffffffffffffffff167f8c5be1e5ebec7d5bd14f71427d1e84f3dd0314c0f7b2291e5b200ac8c7c3b92560405160405180910390a45050565b600081600001549050919050565b600073ffffffffffffffffffffffffffffffffffffffff168273ffffffffffffffffffffffffffffffffffffffff1603610ce9576040517f08c379a0000000000000000000000000000000000000000000000000000000008152600401610ce0906126b5565b60405180910390fd5b610cf2816116f0565b15610d32576040517f08c379a0000000000000000000000000000000000000000000000000000000008152600401610d2990612721565b60405180910390fd5b610d40600083836001611731565b610d49816116f0565b15610d89576040517f08c379a0000000000000000000000000000000000000000000000000000000008152600401610d8090612721565b60405180910390fd5b6001600360008473ffffffffffffffffffffffffffffffffffffffff1673ffffffffffffffffffffffffffffffffffffffff16815260200190815260200160002060008282540192505081905550816002600083815260200190815260200160002060006101000a81548173ffffffffffffffffffffffffffffffffffffffff021916908373ffffffffffffffffffffffffffffffffffffffff160217905550808273ffffffffffffffffffffffffffffffffffffffff16600073ffffffffffffffffffffffffffffffffffffffff167fddf252ad1be2c89b69c2b068fc378daa952ba7f163c4a11628f55a4df523b3ef60405160405180910390a4610e93600083836001611857565b5050565b6001816000016000828254019250508190555050565b600080610eb983610709565b90508073ffffffffffffffffffffffffffffffffffffffff168473ffffffffffffffffffffffffffffffffffffffff161480610efb5750610efa8185610a62565b5b80610f3957508373ffffffffffffffffffffffffffffffffffffffff16610f21846104a4565b73ffffffffffffffffffffffffffffffffffffffff16145b91505092915050565b8273ffffffffffffffffffffffffffffffffffffffff16610f6282610709565b73ffffffffffffffffffffffffffffffffffffffff1614610fb8576040517f08c379a0000000000000000000000000000000000000000000000000000000008152600401610faf906127b3565b60405180910390fd5b600073ffffffffffffffffffffffffffffffffffffffff168273ffffffffffffffffffffffffffffffffffffffff1603611027576040517f08c379a000000000000000000000000000000000000000000000000000000000815260040161101e90612845565b60405180910390fd5b6110348383836001611731565b8273ffffffffffffffffffffffffffffffffffffffff1661105482610709565b73ffffffffffffffffffffffffffffffffffffffff16146110aa576040517f08c379a00000000000000000000000000000000000000000000000000000000081526004016110a1906127b3565b60405180910390fd5b6004600082815260200190815260200160002060006101000a81549073ffffffffffffffffffffffffffffffffffffffff02191690556001600360008573ffffffffffffffffffffffffffffffffffffffff1673ffffffffffffffffffffffffffffffffffffffff168152602001908152602001600020600082825403925050819055506001600360008473ffffffffffffffffffffffffffffffffffffffff1673ffffffffffffffffffffffffffffffffffffffff16815260200190815260200160002060008282540192505081905550816002600083815260200190815260200160002060006101000a81548173ffffffffffffffffffffffffffffffffffffffff021916908373ffffffffffffffffffffffffffffffffffffffff160217905550808273ffffffffffffffffffffffffffffffffffffffff168473ffffffffffffffffffffffffffffffffffffffff167fddf252ad1be2c89b69c2b068fc378daa952ba7f163c4a11628f55a4df523b3ef60405160405180910390a46112368383836001611857565b505050565b60606000600161124a8461185d565b01905060008167ffffffffffffffff81111561126957611268611f26565b5b6040519080825280601f01601f19166020018201604052801561129b5781602001600182028036833780820191505090505b509050600082602001820190505b6001156112fe578080600190039150507f3031323334353637383961626364656600000000000000000000000000000000600a86061a8153600a85816112f2576112f1612865565b5b049450600085036112a9575b819350505050919050565b6060600082510361132b57604051806020016040528060008152509050611467565b6000604051806060016040528060408152602001612b80604091399050600060036002855161135a91906128c3565b61136491906128f7565b60046113709190612928565b67ffffffffffffffff81111561138957611388611f26565b5b6040519080825280601f01601f1916602001820160405280156113bb5781602001600182028036833780820191505090505b509050600182016020820185865187015b80821015611427576003820191508151603f8160121c168501518453600184019350603f81600c1c168501518453600184019350603f8160061c168501518453600184019350603f81168501518453600184019350506113cc565b505060038651066001811461144357600281146114565761145e565b603d6001830353603d600283035361145e565b603d60018303535b50505080925050505b919050565b60006002600083815260200190815260200160002060009054906101000a900473ffffffffffffffffffffffffffffffffffffffff169050919050565b8173ffffffffffffffffffffffffffffffffffffffff168373ffffffffffffffffffffffffffffffffffffffff1603611517576040517f08c379a000000000000000000000000000000000000000000000000000000000815260040161150e906129b6565b60405180910390fd5b80600560008573ffffffffffffffffffffffffffffffffffffffff1673ffffffffffffffffffffffffffffffffffffffff16815260200190815260200160002060008473ffffffffffffffffffffffffffffffffffffffff1673ffffffffffffffffffffffffffffffffffffffff16815260200190815260200160002060006101000a81548160ff0219169083151502179055508173ffffffffffffffffffffffffffffffffffffffff168373ffffffffffffffffffffffffffffffffffffffff167f17307eab39ab6107e8899845ad3d59bd9653f200f220920489ca2b5937696c31836040516116089190611c0e565b60405180910390a3505050565b611620848484610f42565b61162c848484846119b0565b61166b576040517f08c379a000000000000000000000000000000000000000000000000000000000815260040161166290612a48565b60405180910390fd5b50505050565b606060405180602001604052806000815250905090565b606061169382610b60565b600061169d611671565b905060008151116116bd57604051806020016040528060008152506116e8565b806116c78461123b565b6040516020016116d8929190612645565b6040516020818303038152906040525b915050919050565b60008073ffffffffffffffffffffffffffffffffffffffff166117128361146c565b73ffffffffffffffffffffffffffffffffffffffff1614159050919050565b600181111561185157600073ffffffffffffffffffffffffffffffffffffffff168473ffffffffffffffffffffffffffffffffffffffff16146117c55780600360008673ffffffffffffffffffffffffffffffffffffffff1673ffffffffffffffffffffffffffffffffffffffff16815260200190815260200160002060008282546117bd9190612a68565b925050819055505b600073ffffffffffffffffffffffffffffffffffffffff168373ffffffffffffffffffffffffffffffffffffffff16146118505780600360008573ffffffffffffffffffffffffffffffffffffffff1673ffffffffffffffffffffffffffffffffffffffff168152602001908152602001600020600082825461184891906128c3565b925050819055505b5b50505050565b50505050565b600080600090507a184f03e93ff9f4daa797ed6e38ed64bf6a1f01000000000000000083106118bb577a184f03e93ff9f4daa797ed6e38ed64bf6a1f01000000000000000083816118b1576118b0612865565b5b0492506040810190505b6d04ee2d6d415b85acef810000000083106118f8576d04ee2d6d415b85acef810000000083816118ee576118ed612865565b5b0492506020810190505b662386f26fc10000831061192757662386f26fc10000838161191d5761191c612865565b5b0492506010810190505b6305f5e1008310611950576305f5e100838161194657611945612865565b5b0492506008810190505b612710831061197557612710838161196b5761196a612865565b5b0492506004810190505b60648310611998576064838161198e5761198d612865565b5b0492506002810190505b600a83106119a7576001810190505b80915050919050565b60006119d18473ffffffffffffffffffffffffffffffffffffffff16611b37565b15611b2a578373ffffffffffffffffffffffffffffffffffffffff1663150b7a026119fa610bab565b8786866040518563ffffffff1660e01b8152600401611a1c9493929190612af1565b6020604051808303816000875af1925050508015611a5857506040513d601f19601f82011682018060405250810190611a559190612b52565b60015b611ada573d8060008114611a88576040519150601f19603f3d011682016040523d82523d6000602084013e611a8d565b606091505b506000815103611ad2576040517f08c379a0000000000000000000000000000000000000000000000000000000008152600401611ac990612a48565b60405180910390fd5b805181602001fd5b63150b7a0260e01b7bffffffffffffffffffffffffffffffffffffffffffffffffffffffff1916817bffffffffffffffffffffffffffffffffffffffffffffffffffffffff191614915050611b2f565b600190505b949350505050565b6000808273ffffffffffffffffffffffffffffffffffffffff163b119050919050565b6000604051905090565b600080fd5b600080fd5b60007fffffffff0000000000000000000000000000000000000000000000000000000082169050919050565b611ba381611b6e565b8114611bae57600080fd5b50565b600081359050611bc081611b9a565b92915050565b600060208284031215611bdc57611bdb611b64565b5b6000611bea84828501611bb1565b91505092915050565b60008115159050919050565b611c0881611bf3565b82525050565b6000602082019050611c236000830184611bff565b92915050565b600081519050919050565b600082825260208201905092915050565b60005b83811015611c63578082015181840152602081019050611c48565b60008484015250505050565b6000601f19601f8301169050919050565b6000611c8b82611c29565b611c958185611c34565b9350611ca5818560208601611c45565b611cae81611c6f565b840191505092915050565b60006020820190508181036000830152611cd38184611c80565b905092915050565b6000819050919050565b611cee81611cdb565b8114611cf957600080fd5b50565b600081359050611d0b81611ce5565b92915050565b600060208284031215611d2757611d26611b64565b5b6000611d3584828501611cfc565b91505092915050565b600073ffffffffffffffffffffffffffffffffffffffff82169050919050565b6000611d6982611d3e565b9050919050565b611d7981611d5e565b82525050565b6000602082019050611d946000830184611d70565b92915050565b611da381611d5e565b8114611dae57600080fd5b50565b600081359050611dc081611d9a565b92915050565b60008060408385031215611ddd57611ddc611b64565b5b6000611deb85828601611db1565b9250506020611dfc85828601611cfc565b9150509250929050565b611e0f81611cdb565b82525050565b6000602082019050611e2a6000830184611e06565b92915050565b600080600060608486031215611e4957611e48611b64565b5b6000611e5786828701611db1565b9350506020611e6886828701611db1565b9250506040611e7986828701611cfc565b9150509250925092565b600060208284031215611e9957611e98611b64565b5b6000611ea784828501611db1565b91505092915050565b611eb981611bf3565b8114611ec457600080fd5b50565b600081359050611ed681611eb0565b92915050565b60008060408385031215611ef357611ef2611b64565b5b6000611f0185828601611db1565b9250506020611f1285828601611ec7565b9150509250929050565b600080fd5b600080fd5b7f4e487b7100000000000000000000000000000000000000000000000000000000600052604160045260246000fd5b611f5e82611c6f565b810181811067ffffffffffffffff82111715611f7d57611f7c611f26565b5b80604052505050565b6000611f90611b5a565b9050611f9c8282611f55565b919050565b600067ffffffffffffffff821115611fbc57611fbb611f26565b5b611fc582611c6f565b9050602081019050919050565b82818337600083830152505050565b6000611ff4611fef84611fa1565b611f86565b9050828152602081018484840111156120105761200f611f21565b5b61201b848285611fd2565b509392505050565b600082601f83011261203857612037611f1c565b5b8135612048848260208601611fe1565b91505092915050565b6000806000806080858703121561206b5761206a611b64565b5b600061207987828801611db1565b945050602061208a87828801611db1565b935050604061209b87828801611cfc565b925050606085013567ffffffffffffffff8111156120bc576120bb611b69565b5b6120c887828801612023565b91505092959194509250565b600080604083850312156120eb576120ea611b64565b5b60006120f985828601611db1565b925050602061210a85828601611db1565b9150509250929050565b7f4e487b7100000000000000000000000000000000000000000000000000000000600052602260045260246000fd5b6000600282049050600182168061215b57607f821691505b60208210810361216e5761216d612114565b5b50919050565b7f4552433732313a20617070726f76616c20746f2063757272656e74206f776e6560008201527f7200000000000000000000000000000000000000000000000000000000000000602082015250565b60006121d0602183611c34565b91506121db82612174565b604082019050919050565b600060208201905081810360008301526121ff816121c3565b9050919050565b7f4552433732313a20617070726f76652063616c6c6572206973206e6f7420746f60008201527f6b656e206f776e6572206f7220617070726f76656420666f7220616c6c000000602082015250565b6000612262603d83611c34565b915061226d82612206565b604082019050919050565b6000602082019050818103600083015261229181612255565b9050919050565b7f4552433732313a2063616c6c6572206973206e6f7420746f6b656e206f776e6560008201527f72206f7220617070726f76656400000000000000000000000000000000000000602082015250565b60006122f4602d83611c34565b91506122ff82612298565b604082019050919050565b60006020820190508181036000830152612323816122e7565b9050919050565b600081905092915050565b7f7b00000000000000000000000000000000000000000000000000000000000000600082015250565b600061236b60018361232a565b915061237682612335565b600182019050919050565b7f226e616d65223a20224e46542023000000000000000000000000000000000000600082015250565b60006123b7600e8361232a565b91506123c282612381565b600e82019050919050565b60006123d882611c29565b6123e2818561232a565b93506123f2818560208601611c45565b80840191505092915050565b7f2200000000000000000000000000000000000000000000000000000000000000600082015250565b600061243460018361232a565b915061243f826123fe565b600182019050919050565b7f7d00000000000000000000000000000000000000000000000000000000000000600082015250565b600061248060018361232a565b915061248b8261244a565b600182019050919050565b60006124a18261235e565b91506124ac826123aa565b91506124b882846123cd565b91506124c382612427565b91506124ce82612473565b915081905092915050565b7f646174613a6170706c69636174696f6e2f6a736f6e3b6261736536342c000000600082015250565b600061250f601d8361232a565b915061251a826124d9565b601d82019050919050565b600061253082612502565b915061253c82846123cd565b915081905092915050565b7f4552433732313a20696e76616c696420746f6b656e2049440000000000000000600082015250565b600061257d601883611c34565b915061258882612547565b602082019050919050565b600060208201905081810360008301526125ac81612570565b9050919050565b7f4552433732313a2061646472657373207a65726f206973206e6f74206120766160008201527f6c6964206f776e65720000000000000000000000000000000000000000000000602082015250565b600061260f602983611c34565b915061261a826125b3565b604082019050919050565b6000602082019050818103600083015261263e81612602565b9050919050565b600061265182856123cd565b915061265d82846123cd565b91508190509392505050565b7f4552433732313a206d696e7420746f20746865207a65726f2061646472657373600082015250565b600061269f602083611c34565b91506126aa82612669565b602082019050919050565b600060208201905081810360008301526126ce81612692565b9050919050565b7f4552433732313a20746f6b656e20616c7265616479206d696e74656400000000600082015250565b600061270b601c83611c34565b9150612716826126d5565b602082019050919050565b6000602082019050818103600083015261273a816126fe565b9050919050565b7f4552433732313a207472616e736665722066726f6d20696e636f72726563742060008201527f6f776e6572000000000000000000000000000000000000000000000000000000602082015250565b600061279d602583611c34565b91506127a882612741565b604082019050919050565b600060208201905081810360008301526127cc81612790565b9050919050565b7f4552433732313a207472616e7366657220746f20746865207a65726f2061646460008201527f7265737300000000000000000000000000000000000000000000000000000000602082015250565b600061282f602483611c34565b915061283a826127d3565b604082019050919050565b6000602082019050818103600083015261285e81612822565b9050919050565b7f4e487b7100000000000000000000000000000000000000000000000000000000600052601260045260246000fd5b7f4e487b7100000000000000000000000000000000000000000000000000000000600052601160045260246000fd5b60006128ce82611cdb565b91506128d983611cdb565b92508282019050808211156128f1576128f0612894565b5b92915050565b600061290282611cdb565b915061290d83611cdb565b92508261291d5761291c612865565b5b828204905092915050565b600061293382611cdb565b915061293e83611cdb565b925082820261294c81611cdb565b9150828204841483151761296357612962612894565b5b5092915050565b7f4552433732313a20617070726f766520746f2063616c6c657200000000000000600082015250565b60006129a0601983611c34565b91506129ab8261296a565b602082019050919050565b600060208201905081810360008301526129cf81612993565b9050919050565b7f4552433732313a207472616e7366657220746f206e6f6e20455243373231526560008201527f63656976657220696d706c656d656e7465720000000000000000000000000000602082015250565b6000612a32603283611c34565b9150612a3d826129d6565b604082019050919050565b60006020820190508181036000830152612a6181612a25565b9050919050565b6000612a7382611cdb565b9150612a7e83611cdb565b9250828203905081811115612a9657612a95612894565b5b92915050565b600081519050919050565b600082825260208201905092915050565b6000612ac382612a9c565b612acd8185612aa7565b9350612add818560208601611c45565b612ae681611c6f565b840191505092915050565b6000608082019050612b066000830187611d70565b612b136020830186611d70565b612b206040830185611e06565b8181036060830152612b328184612ab8565b905095945050505050565b600081519050612b4c81611b9a565b92915050565b600060208284031215612b6857612b67611b64565b5b6000612b7684828501612b3d565b9150509291505056fe4142434445464748494a4b4c4d4e4f505152535455565758595a6162636465666768696a6b6c6d6e6f707172737475767778797a303132333435363738392b2fa2646970667358221220fb94ff99362e7b8786c4cd379185c8a945b24399dbb57738c170d150119d9c5f64736f6c63430008110033",
  "linkReferences": {},
  "deployedLinkReferences": {}
}